:030000000204C433
:0C04C400787FE4F6D8FD75815202050B2C
:100A970068656C6C6F00C0F9A4B0999282F8809079
:060AA7008883C6A1868EC3
:100A1E00120B3B7BFF7A0A7997E4FDFF120A4A7E9E
:100A2E0000C37480948040F7E51494107480948011
:0C0A3E0050EDE514900A9D93F5A080E3B4
:100928004B45595F315F444F574E004B45595F3136
:100938005F55502020004B45595F315F4C4F4E4763
:10094800004B45595F325F444F574E004B45595F46
:10095800325F55502020004B45595F325F4C4F4E57
:02096800470046
:090B3B0012072A120AC3020AFB88
:100AFB00438910758DFC758B18D2ABD2AFD28E2279
:030B560002000397
:100844007B007A00790C1205D18F4CE54C24FE60B4
:100854001814601D14602214602714602C24057081
:10086400347BFF7A09792880267BFF7A09793380E3
:100874001E7BFF7A09793E80167BFF7A09794980CD
:100884000E7BFF7A09795480067BFF7A09795FE44D
:06089400FDFF120A4A22DA
:03001B000206BE1C
:1006BE00C0E0C0F0C083C082C0D075D000C000C002
:0D06CE0001C002C003C004C005C006C00783
:1006DB00758DFC758B180549E54970020548054B6E
:1006EB00E54B7002054AE549640545487007F54836
:1006FB00F549120844E54B640A454A7007F54AF57B
:04070B004B120B562C
:10070F00D007D006D005D004D003D002D001D0003E
:0B071F00D0D0D082D083D0F0D0E032E8
:100B0B00EEEDEBE7DEDDDBBBBEBDBBB77E7D7B7702
:100A72000A1500000000000000000000161F000020
:100A82000000000000000000000000000000000064
:040A92000000000060
:1007ED00E4FDFBFAEDC39404748094805028ED6011
:1007FD000EEBC4F8540FC868FBEAC454F048FAA8CD
:10080D00057480088002C313D8FCF4F590E590546C
:10081D000F42030D80CE7D10AF051DEF6014AE02AB
:10082D00EBA805088005CEC313CE13D8F920E0E858
:06083D008D14AF147E00D3
:010843002292
:100795007590F0AF90EF64F060440509E5097002CB
:1007A5000508D39403E50894004038AF907E0075A2
:1007B500900FAD90ED4FFFE4FDFC740B2DF58274A9
:1007C5000B3CF583E4936F7001EE600B0DBD0001EA
:1007D5000CED64104C70E38D14AF147E0022E4F52B
:0707E50008F5097EFF7FFF0C
:0107EC0022EA
:1006490075900FAF90EF640F6061050BE50B7002B9
:10065900050AD39403E50A9400404B75900FAF90B7
:10066900EF24F9601A24FC601124FE60081470124A
:10067900E4F514800D751401800875140280037562
:1006890014037590F0AF90EF2490601424C0600CAF
:1006990024E0600424F0800E74048006740880024B
:1006A900740C2514F514AF147E0022E4F50AF50B39
:0406B9007EFF7FFF42
:0106BD00221A
:090B440020B0037F01227F002292
:090B4D0020B1037F01227F002288
:10072A00753900753A00753B157B007A00790C7DA6
:10073A000A12089AE4FFEFC3940274809480503836
:10074A00EF75F00BA42425F87600087664EF75F0AF
:10075A000BA42422F87602EF75F00BA42427F8E400
:10076A00F6EF75F00BA42428F8E4F6EF75F00BA465
:10077A002429F8E4F60F80BE751FFF75200B75213A
:0A078A0044752AFF752B0B752C4DEA
:010794002242
:020347008F3DE8
:10034900EF75F00BA4241FF808E6FA08E6AE024E92
:1003590070030204C3EF75F00BA4241FF9E4FAFB40
:10036900F53EF53F89401201EB120294EF7003024A
:10037900045BAB3EAA3FA940900003120037FF7E01
:1003890000C394057480948050089000037405029A
:1003990004C0C3EF940AEE6480948050089000036F
:1003A9007401020064900008120037701890000868
:1003B900041200977B007A00790CE53D75F003A4DF
:1003C90004FD120550AB3EAA3FA940900006120158
:1003D9001AFFAEF0D39400EE940050030204C390C8
:1003E900000412011AC39FE5F09E5026900004E410
:1003F90075F001120152FCE5F06F7002EC6E6003BA
:100409000204C3FB7A00790CE53D75F003A42403CB
:10041900803CAB3EAA3FA940900009120037FFD3A8
:1004290094007480948050030204C390000A7401FC
:10043900120064C39F50030204C390000AE412002F
:10044900977B007A00790CE53D75F003A404FD0261
:100459000550AB3EAA3FA940900003120037FF7E2A
:1004690000D3940574809480400A900003740512A7
:1004790000978030EF4E600A90000374FF12006409
:100489008022900008120037640170189000081249
:1004990000977B007A00790CE53D75F003A42402EE
:1004A900FD120550AB3EAA3FA940900004E4F5F0C7
:0A04B9001201BE90000AE412009741
:0104C3002216
:10000300E4F53CC3E53C9402748094805009AF3C12
:07001300120347053C80ECDD
:01001A0022C3
:100AD7007580FFC2B2D2B3D2B4AF80C2B4EF20E701
:010AE700F618
:010AE80022EB
:100B1B00AE07120AD7C2B2C2B38E80D2B4C2B4220D
:100B2B00AE07120AD7D2B2C2B38E80D2B4C2B422ED
:100AE900ED7004AC078004EF2440FCEC4480FF0265
:020AF9000B1BD5
:100A4A008B3C8A3D893E120AE9AB3CAA3DA93E127B
:100A5A00001E6013053EE53E7002053D14F91200C2
:080A6A001EFF120B2B80E2229B
:100AC3007F38120B1B7F0C120B1B7F06120B1B7F35
:040AD30001020B1BF6
:10089A008B358A368937AB39AA3AA93BC003C002DD
:1008AA00C001AB35AA36A93790000512023BAB3519
:1008BA00AA36A93774FFF5F012019FAB35AA36A9FB
:1008CA003790000274FFF5F01201BE900004ED1299
:0708DA0000977E007F012260
:1008E1008B4D8A4E894F7B007A007900C003C0028C
:1008F100C001AB4DAA4EA94F90000512023BAB4D72
:10090100AA4EA94F74FFF5F012019FAB4DAA4EA953
:100911004F90000274FFF5F01201BE900004E41242
:0709210000977E007F012218
:100550008D448B418A4289431209EBEF4E6004E4DB
:10056000FEFF22AB41AA42A943120AADEF4E600C36
:10057000AB41AA42A943E4F5F012019FAB41AA4264
:10058000A94390000212011A2401FFE435F0FE9005
:100590000004120037FD7C001200B9900002EC8DBF
:1005A000F01201BE90000512020BC003C002C00190
:1005B000AB41AA42A94390000212011AD001D00215
:1005C000D003F58285F083E5441200977E007F0119
:0105D0002208
:0605D1008B3C8A3D893ECF
:1005D7001209AC8E3F8F40AB3CAA3DA93E120AAD33
:1005E700EF4E6004E4FEFF22AB3CAA3DA93E90001B
:1005F7000212011AFFAEF01200EFB5071EE5F0B5C3
:10060700061974FFF5F012019FAB3CAA3DA93E9075
:10061700000274FFF5F01201BE8022AB3CAA3DA98F
:100627003E900004120037FD7C001200EF2401FF0A
:10063700E435F0FE1200B9EC8DF012019FAE3FAF2A
:010647004072
:01064800228F
:1009AC008B418A428943120AADEF4E60057EFF7F70
:1009BC00FF22AB41AA42A94390000512020BC003CF
:1009CC00C002C001AB41AA42A9431200EFD001D032
:0F09DC0002D003F58285F083120037FF7E0022E0
:10096A008B508A518952120AADEF4E60057EFF7F85
:10097A00FF22AB50AA51A95290000512020BC003E4
:10098A00C002C001AB50AA51A95290000212011A2A
:10099A00D001D002D003F58285F083120037FF7EA2
:0209AA00002229
:100AAD001200EFFFAEF0BEFF08BFFF057E007F0115
:060ABD00227E007F0022F2
:1009EB008B458A46894790000212011A2401FFE4C5
:1009FB0035F0FE900004120037FD7C001200B91296
:100A0B0000EFB50509ECB5F0057E007F01227E00F5
:030A1B007F002237
:1004D000020A1EE493A3F8E493A34003F68001F21A
:1004E00008DFF48029E493A3F85407240CC8C3332D
:1004F000C4540F4420C8834004F456800146F6DFFC
:10050000E4800B0102040810204080900A72E47E0F
:10051000019360BCA3FF543F30E509541FFEE493F0
:10052000A360010ECF54C025E060A840B8E493A3B7
:10053000FAE493A3F8E493A3C8C582C8CAC583CAE2
:10054000F0A3C8C582C8CAC583CADFE9DEE780BE9A
:010A9600005F
:10001E00BB010689828A83E0225002E722BBFE02E0
:09002E00E32289828A83E4932213
:10003700BB010CE58229F582E5833AF583E022507E
:1000470006E92582F8E622BBFE06E92582F8E222C8
:0D005700E58229F582E5833AF583E49322E2
:10006400BB010FF8E58229F582E5833AF583E028A0
:10007400F0225009C58229F8E58226F622BBFE0942
:10008400C58229F8E22582F222F8EA2583F583E97C
:030094009328228C
:10009700F8BB010DE58229F582E5833AF583E8F09F
:1000A700225006E92582C8F622BBFE05E92582C84B
:0200B700F22233
:1000B900C2D5EC30E709B2D5E4C39DFDE49CFCEE62
:1000C90030E715B2D5E4C39FFFE49EFE12029AC33E
:1000D900E49DFDE49CFC800312029A30D507C3E439
:0600E9009FFFE49EFE22D1
:1000EF00BB010A89828A83E0F5F0A3E022500687DC
:1000FF00F009E71922BBFE07E3F5F009E31922899E
:0B010F00828A83E493F5F074019322D0
:10011A00BB0110E58229F582E5833AF583E0F5F023
:10012A00A3E0225009E92582F886F008E622BBFE00
:10013A000AE92582F8E2F5F008E222E5832AF58346
:08014A00E993F5F0A3E993220B
:10015200BB010DC58229C582C5833AC5830202EF60
:100162005011C58229F808E5F026F618F5F0E58267
:1001720036F622BBFE11C58229F808E225F0F5F019
:10018200F218E23582F222F8E58229F582E5832A25
:0D019200F58374019325F0F5F0E493382215
:10019F00BB010A89828A83F0E5F0A3F0225006F7AB
:0F01AF0009A7F01922BBFE06F3E5F009F31922A8
:1001BE00F8BB0111E58229F582E5833AF583E8F073
:1001CE00E5F0A3F0225009E92582C8F608A6F02230
:0D01DE00BBFE09E92582C8F2E5F008F22217
:1001EB00BB010789828A830203175005E9F80203D2
:1001FB0005BBFE05E9F802032989828A8302033BCA
:10020B00BB010DE58229F582E5833AF583020317DD
:10021B005007E92582F8020305BBFE07E92582F8A2
:10022B00020329E58229F582E5833AF58302033B34
:10023B00BB0120E58229F582E5833AF583D0F0D026
:10024B00E0F8D0E0F9D0E0FAD0E0FBE8C0E0C0F095
:10025B000203205018E92582F8D083D082D0E0F930
:10026B00D0E0FAD0E0FBC082C08302030EBBFE18C5
:10027B00E92582F8D083D082D0E0F9D0E0FAD0E043
:09028B00FBC082C0830203322291
:060294008A838982E473F5
:10029A00BC000BBE0029EF8DF084FFADF022E4CC48
:1002AA00F875F008EF2FFFEE33FEEC33FCEE9DEC11
:1002BA00984005FCEE9DFE0FD5F0E9E4CEFD22ED57
:1002CA00F8F5F0EE8420D21CFEADF075F008EF2FA1
:1002DA00FFED33FD4007985006D5F0F222C398FD92
:0502EA000FD5F0EA222F
:1002EF00C5F0F8A3E028F0C5F0F8E582158270029A
:0602FF001583E038F02237
:09030500E6FB08E6FA08E6F9221D
:09030E00EBF608EAF608E9F62214
:09031700E0FBA3E0FAA3E0F922E7
:09032000EBF0A3EAF0A3E9F022DE
:09032900E2FB08E2FA08E2F92205
:09033200EBF208EAF208E9F222FC
:0C033B00E493FB740193FA740293F9221E
:00000001FF
