:030000000209B73B
:0C09B700787FE4F6D8FD7581780209FE17
:030DD400017500A6
:100F0100E56864017006757301756802E56864023D
:0F0F1100700BE57364017005F5737F01227F009B
:010F200022AE
:100F2100E56864037006757401756802E56864021A
:0F0F3100700BE57464017005F5747F01227F0079
:010F4000228E
:0C0FEF007B007A00791712064F7F002269
:100E4000D3E5759400748094807B007A0079174014
:100E500005120E0A800312072E0575D3E575940658
:100E600074809480400C7B007A00791712072EE47E
:030E7000F57522F3
:100CCF007B007A00790A120BD2753BFF753C0F75CA
:100CDF003D21753EFF753F0E754040E4F541FB7AAF
:100CEF0000790A120A43753BFF753C0F753D01757C
:100CFF003EFF753F0F7540EF7541017B007A00791C
:090D0F000A120A4312000380FEDF
:100ED700000000000000000000000000000000000B
:100EE70000000000000000000000000000000000FB
:0A0EF70000000000000000000000F1
:100DD700202117000000000030163110062200FF06
:100DE7001007FF08E2FF0C2BFF0E73FF0D5FFF0FCD
:040DF70059FF0EA6EC
:100003007B007A00791785258285248312032C12BD
:080013000D9A120F59020FA310
:100FA300438910758DD8758BF0D2ABD2AFD28E2218
:0C0FFB00120F417B007A00790A020C8280
:091011007B007A007917020386C6
:03001B00020AAF27
:100AAF00C0E0C0F0C083C082C0D075D000C000C00D
:0D0ABF0001C002C003C004C005C006C0078E
:100ACC00758DD8758BF005080509AF08EF3395E0E7
:100ADC00FEEF640A4E7005F508121011AF09EF33E2
:0E0AEC0095E0FEEF64014E7005F509120FFB58
:100AFA00D007D006D005D004D003D002D001D00050
:0B0B0A00D0D0D082D083D0F0D0E032F9
:0A100700E92404F9E43AFA020D5F4F
:0608E2008B388A39893AC7
:1008E800783B7C007D007BFF7A0E79D77E007F0AFB
:1008F8001200EE78457C007D007BFF7A0E79E17E60
:10090800007F0A1200EEAB38AA39A93A9000061205
:10091800012DFFC4540F2430F53BEF540F2430F55C
:100928003C753D2D90000512012DFFC4540F243055
:10093800F53EEF540F2430F53F75402D900004121A
:10094800012DFFC4540F2430F541EF540F2430F526
:100958004290000A12012DFFC4540F2430F545EFD0
:10096800540F2430F54675472D90000812012DFFCD
:10097800C4540F2430F548EF540F2430F549754A14
:100988002D90000712012DFFC4540F2430F54BEFB2
:10099800540F2430F54C7B007A00793BE4FDFF12BC
:0F09A8000EA67B007A0079457D01E4FF020EA6C2
:060C2B008B388A39893A7A
:100C3100783B7C007D007BFF7A0E79EB7E007F099B
:100C41001200EE78447C007D007BFF7A0E79F47E01
:100C5100007F0D1200EE7554007555007556447BEA
:100C6100007A00793B12080B7B007A00793BE4FDA6
:100C7100FF120EA67B007A0079447D01E4FF020E8B
:010C8100A6CC
:06080B008B518A52895353
:100811007B007A007957120E73E559C4540F2430C6
:10082100AB51AA52A95312018DE559540F2430AB93
:1008310051AA52A95390000112019F900002742DF8
:1008410012019FE558C4540F243090000312019FF8
:10085100E558540F243090000412019F9000057454
:100861002D12019FE557C4540F2430900006120148
:100871009FE557540F243090000712019FE55DC496
:10088100540F2430AB54AA55A95612018DE55D547D
:100891000F2430AB54AA55A95690000112019F9024
:1008A1000002742D12019FE55BC4540F24309000A7
:1008B1000312019FE55B540F243090000412019F45
:1008C100900005742D12019FE55AC4540F243090F5
:1008D100000612019FE55A540F24309000070201CF
:0108E1009F77
:100F6D007580FFC2B2D2B3D2B4AF80C2B4EF20E766
:010F7D00F67D
:010F7E002250
:100FB300AE07120F6DC2B2C2B38E80D2B4C2B422D6
:100FC300AE07120F6DD2B2C2B38E80D2B4C2B422B6
:100F7F00ED7004AC078004EF2440FCEC4480FF02CA
:020F8F000FB39E
:100EA6008B518A528953AC077F0C120FB3AF0412D1
:100EB6000F7FAB51AA52A95312011460130553E5D3
:100EC600537002055214F9120114FF120FC380E287
:010ED60022F9
:100F9100120F7FEB640170047F0F80027F0C120F30
:020FA100B32279
:100F59007F38120FB37F0C120FB37F06120FB37FC6
:040F690001020FB3BF
:0E0FD30081838587898B8D80828486888A8CB5
:100D1800C29200C29100D29200E4FEEEC39408741D
:100D28008094805011EF139290EFC313FFD291007B
:100D3800C291000E80E5E4FEEEC3940874809480AE
:100D48005011ED139290EDC313FDD29100C29100A2
:060D58000E80E5C29200CE
:010D5E002272
:100B7600C29200C29100D29200E4FDEDC3940874C3
:100B86008094805011EF139290EFC313FFD291001F
:100B9600C291000D80E500E4FDEDC39408748094D5
:100BA60080501AA290E433FFC43333335480FCEEF2
:100BB600C3134CFED29100C291000D80DCC292009C
:0B0BC600D29100C29000D29000AF0658
:010BD1002201
:060D5F008B388A39893A45
:100D6500E4FD7F8E120D18E4FCECC39407748094A7
:100D750080501BEC900FDA93FFAB38AA39A93A8C57
:100D85008275830012012DFD120D180C80DB7D800C
:050D95007F8E020D1825
:060E73008B5F8A608961BB
:100E7900E4F562C3E562940774809480501EE562CC
:100E8900900FD393FF120B76AB5FAA60A9618562BD
:0C0E990082758300EF12019F056280D774
:010EA500222A
:0E0FE100202000657272000000000000000079
:06072E008B388A39893A7C
:10073400783B7C007D007BFF7A0F79E87E007F07A1
:100744001200EEAB38AA39A93A120114F412018D41
:10075400AB38AA39A93A1201147055F542C3E542DF
:100764009407748094805023AB38E53A2404F9E468
:100774003539FA7E00E92542F9EE3AFA120114FFFE
:10078400743B2542F8A607054280D27B007A0079A3
:100794003BC003C002C001AB38AA39A93A90001883
:1007A40012029F89828A83D001D002D00302032CD3
:1007B4007B007A00793BC003C002C001AB38AA3980
:1007C400A93A90001512029F89828A83D001D0022F
:1007D400D00312032CE4F542C3E5429407748094D9
:1007E400805023743B2542F8E6FFAB38E53A2404F5
:1007F400F9E43539FAE5427C0029F9EC3AFAEF12CA
:06080400018D054280D2C7
:01080A0022CB
:100E0A001201146030900001740112015A9000011D
:100E1A0012012D64057008900001740612019F905A
:100E2A00000112012DD3940674809480400790002B
:060E3A0001E412019F22F9
:06064F008B388A39893A5C
:10065500120114700302072D90000112012DFFFDF8
:100665007C00E92404F9E43AFAE92DF9EC3AFA12A6
:100675000114FEC4540F75F006A4FDC3EE9DFE0ED5
:10068500EFFD6403700EEED3941F74809480406D6B
:100695007E018069ED64044C700EEED3940C748079
:1006A500948040597E018055AB38AA39A93A90000B
:1006B5000112012DFD7C006402700EEED3941874B6
:1006C5008094804038E4FE8034ED64064C700EEE74
:1006D500D39463748094804024E4FE8020AB38AAD0
:1006E50039A93A90000112012DC3940274809480B7
:1006F500500BEE943C748094804002E4FEEE75F05D
:100705000A8475F006A42EFEAB38AA39A93A9000E2
:100715000112012DFD7C00E92404F9E43AFAE92DE2
:08072500F9EC3AFAEE12018D25
:01072D0022A9
:060B15008B768A778978D7
:100B1B00120114605590000112012DFFFD7C00E9BC
:100B2B002404F9E43AFAE92DF9EC3AFA120114FE2D
:100B3B00C4540F75F006A4FDC3EE9DFED394007450
:100B4B0080948040011EEE75F00A8475F006A42E89
:100B5B00FEAB76EFFD7C00E5782404F9E43577FAFB
:0A0B6B00E92DF9EC3AFAEE12018DC3
:010B7500225D
:100386008B638A648965900002E475F0641201F952
:100396001201147012AB63AA64A965C003C002C03F
:1003A6000190001202052BAB63AA64A965900002B6
:1003B6001201C1D394F4E5F0940150030204FE90B7
:1003C600000112012D1460431460661470030204C8
:1003D6005D14700302048524FE70030204AD240636
:1003E60060030204D57BFF7A0F79E1C003C002C027
:1003F60001AB63AA64A96590001E12029F89828AD6
:1004060083D001D002D003E4FD80707BFF7A0F79A0
:10041600E1C003C002C001AB63AA64A96590001ED7
:1004260012029F89828A83D001D002D003E4FD8024
:10043600727BFF7A0F79E1C003C002C001AB63AAE9
:1004460064A96590001E12029F89828A83D001D01A
:1004560002D003E4FD80757BFF7A0F79E1C003C00B
:1004660002C001AB63AA64A96590001E12029F89AF
:10047600828A83D001D002D0037D017F0680767BFD
:10048600FF7A0F79E1C003C002C001AB63AA64A979
:100496006590001E12029F89828A83D001D002D005
:1004A600037D017F03804E7BFF7A0F79E1C003C095
:1004B60002C001AB63AA64A96590001E12029F895F
:1004C600828A83D001D002D0037D01E4FF80267B9F
:1004D600FF7A0F79E4C003C002C001AB63AA64A926
:1004E6006590001E12029F89828A83D001D002D0B5
:1004F600037D017F0B12032CAB63AA64A9659000F0
:10050600021201C1D394E8E5F0940340289000025A
:10051600E4F5F0120246C003C002C001AB63AA6450
:10052600A96590000F12029F89828A83D001D002AA
:06053600D00312032C2289
:0E0DFB00096A0000000000000000000169000D
:09101A0020B0037F01227F0022B7
:100D9A00E4FFEFC39401748094805024EF75F00946
:100DAA00A42470F87600087628EF75F009A4246D5B
:100DBA00F87602EF75F009A42472F8E4F60F80D2EF
:090DCA00756AFF756B10756C1A57
:010DD30022FD
:02053C008F64CA
:10053E00EF75F009A4246AF808E6FA08E6AE024E52
:10054E00700302064EEF75F009A4246AF9E4FAFB73
:10055E00F565F566896712027F120328EF700302B4
:10056E0005F5AB65AA66A96790000312012DFF7E03
:10057E0000C39405748094805008900003740502A3
:10058E00019FC3EF940AEE6480948050089000039C
:10059E00740102015A90000812012D700790000894
:1005AE000412019F9000061201C1FFAEF0D3940019
:1005BE00EE9400500302064E9000041201C1C39F38
:1005CE00E5F09E507B900004E475F0011201F9FCF9
:1005DE00E5F06F7002EC6E7067E56475F003A424AD
:1005EE0003F56875690122AB65AA66A967900003D9
:1005FE0012012DFF7E00D3940574809480400A90E2
:10060E000003740512019F802EEF4E600A900003C6
:10061E0074FF12015A802090000812012D6401709F
:10062E001690000812019FE5697009E56475F003E4
:10063E00A404F568E4F569900004E4F5F0120246AE
:01064E002289
:100F4100E4F563C3E5639401748094805009AF6351
:070F510012053C056380EC72
:010F58002276
:060C82008B638A648965A2
:100C8800E4F566F566AB63AA64A965120114FFE58D
:100C980066C39F503190000175F003E56612027338
:100CA80012029F120328EF64017017AB63AA64A9AC
:100CB8006590000775F003E56612027312029F1231
:060CC8000328056680BF51
:010CCE002203
:100A43008B388A39893A90000175F003E541120227
:100A53007312029FE94A6013AB38AA39A93A12010B
:100A630014FFE541D39F40037F4222AB3BAA3CA93D
:100A73003DC003C002C001AB38AA39A93A900001B6
:100A830075F003E5411202731202CFAB3EAA3FA9F0
:100A930040C003C002C001AB38AA39A93A9000078D
:0C0AA30075F003E5411202731202CF222D
:060BD2008B388A39893AD4
:100BD800740212018DE4FFEFC39402748094805074
:100BE800417B007A007900C003C002C001AB38AA7B
:100BF80039A93A90000175F003EF1202731202CF7F
:100C08007B007A007900C003C002C001AB38AA3962
:100C1800A93A90000775F003EF1202731202CF0F82
:020C280080B595
:010C2A0022A7
:1009C300020CCFE493A3F8E493A34003F68001F26F
:1009D30008DFF48029E493A3F85407240CC8C33335
:1009E300C4540F4420C8834004F456800146F6DF04
:1009F300E4800B0102040810204080900DD4E47EB3
:100A0300019360BCA3FF543F30E509541FFEE493F8
:100A1300A360010ECF54C025E060A840B8E493A3BF
:100A2300FAE493A3F8E493A3C8C582C8CAC583CAEA
:100A3300F0A3C8C582C8CAC583CADFE9DEE780BEA2
:010E090000E8
:10001E00E709F608DFFA8046E709F208DFFA803EC4
:10002E0088828C83E709F0A3DFFA8032E309F608B1
:10003E00DFFA8078E309F208DFFA807088828C8319
:10004E00E309F0A3DFFA806489828A83E0A3F608CD
:10005E00DFFA805889828A83E0A3F208DFFA804CA7
:10006E0080D280FA80C680D4806980F2803380107E
:10007E0080A680EA809A80A880DA80E280CA8033E7
:10008E0089828A83ECFAE493A3C8C582C8CCC5835F
:10009E00CCF0A3C8C582C8CCC583CCDFE9DEE7802F
:1000AE000D89828A83E493A3F608DFF9ECFAA9F0AE
:1000BE00EDFB2289828A83ECFAE0A3C8C582C8CC04
:1000CE00C583CCF0A3C8C582C8CCC583CCDFEADE1D
:1000DE00E880DB89828A83E493A3F208DFF980CC7F
:1000EE0088F0EF60010E4E60C388F0ED2402B40478
:1000FE000050B9F582EB2402B4040050AF2323451F
:06010E00822390006E73D5
:10011400BB010689828A83E0225002E722BBFE02E9
:09012400E32289828A83E493221C
:10012D00BB010CE58229F582E5833AF583E0225087
:10013D0006E92582F8E622BBFE06E92582F8E222D1
:0D014D00E58229F582E5833AF583E49322EB
:10015A00BB010FF8E58229F582E5833AF583E028A9
:10016A00F0225009C58229F8E58226F622BBFE094B
:10017A00C58229F8E22582F222F8EA2583F583E985
:03018A0093282295
:10018D00BB010689828A83F0225002F722BBFE0151
:02019D00F3224B
:10019F00F8BB010DE58229F582E5833AF583E8F096
:1001AF00225006E92582C8F622BBFE05E92582C842
:0201BF00F2222A
:1001C100BB0110E58229F582E5833AF583E0F5F07C
:1001D100A3E0225009E92582F886F008E622BBFE59
:1001E1000AE92582F8E2F5F008E222E5832AF5839F
:0801F100E993F5F0A3E9932264
:1001F900BB010DC58229C582C5833AC58302032E79
:100209005011C58229F808E5F026F618F5F0E582BF
:1002190036F622BBFE11C58229F808E225F0F5F071
:10022900F218E23582F222F8E58229F582E5832A7D
:0D023900F58374019325F0F5F0E49338226D
:10024600F8BB0111E58229F582E5833AF583E8F0EA
:10025600E5F0A3F0225009E92582C8F608A6F022A7
:0D026600BBFE09E92582C8F2E5F008F2228E
:0C027300A42582F582E5F03583F5832296
:10027F00BB010789828A830203565005E9F80203FE
:10028F0044BBFE05E9F802036889828A8302037A78
:10029F00BB010DE58229F582E5833AF5830203560A
:1002AF005007E92582F8020344BBFE07E92582F8CF
:1002BF00020368E58229F582E5833AF58302037A22
:1002CF00BB0120E58229F582E5833AF583D0F0D092
:1002DF00E0F8D0E0F9D0E0FAD0E0FBE8C0E0C0F001
:1002EF0002035F5018E92582F8D083D082D0E0F95D
:1002FF00D0E0FAD0E0FBC082C08302034DBBFE18F2
:10030F00E92582F8D083D082D0E0F9D0E0FAD0E0AE
:09031F00FBC082C08302037122BD
:060328008A838982E47360
:10032E00C5F0F8A3E028F0C5F0F8E582158270025A
:06033E001583E038F022F7
:09034400E6FB08E6FA08E6F922DE
:09034D00EBF608EAF608E9F622D5
:09035600E0FBA3E0FAA3E0F922A8
:09035F00EBF0A3EAF0A3E9F0229F
:09036800E2FB08E2FA08E2F922C6
:09037100EBF208EAF208E9F222BD
:0C037A00E493FB740193FA740293F922DF
:00000001FF
