:03000000020742B2
:0C074200787FE4F6D8FD75816E0207890F
:100CEC0068656C6C6F00C0F9A4B0999282F8809022
:060CFC008883C6A1868E6C
:100C5400120D807BFF7A0C79ECE4FDFF120C807E90
:100C640000C37480948040F7E512941074809480DB
:0C0C740050EDE512900CF293F5A080E327
:100B5E004B45595F315F444F574E004B45595F31FE
:100B6E005F55502020004B45595F315F4C4F4E472B
:100B7E00004B45595F325F444F574E004B45595F0E
:100B8E00325F55502020004B45595F325F4C4F4E1F
:020B9E0047000E
:090D80001209A4120D18020D5015
:100D5000438910758DFC758B18D2ABD2AFD28E2221
:060D9B001200030208C76C
:100A7A007B007A00790A12084F8F62E56224FE60D1
:100A8A001814601D14602214602714602C24057049
:100A9A00347BFF7A0B795E80267BFF7A0B7969803B
:100AAA001E7BFF7A0B797480167BFF7A0B797F8025
:100ABA000E7BFF7A0B798A80067BFF7A0B7995E4A5
:060ACA00FDFF120C80226A
:03001B000209389F
:10093800C0E0C0F0C083C082C0D075D000C000C085
:0D09480001C002C003C004C005C006C00706
:10095500758DFC758B18055FE55F7002055E056199
:10096500E56170020560E55F6405455E7007F55E4B
:10097500F55F120A7AE561640A45607007F560F56E
:0409850061120D9B53
:10098900D007D006D005D004D003D002D001D000C2
:0B099900D0D0D082D083D0F0D0E0326C
:100CA8000A1300000000000000000000161D0000EC
:100CB800000000000000000000000000000000002C
:040CC8000000000028
:1008C70075900FAF90EF640F605F0509E50970023F
:1008D7000508D39403E5089400404B75900FAF903B
:1008E700EF24F9601A24FC601124FE6008147012CA
:1008F700E4F512800D7512018008751202800375E8
:1009070012037590F0AF90EF2490601424C0600C30
:1009170024E0600424F0800E7404800674088002CA
:10092700740C2512F512AF1222E4F508F5097FFFC2
:01093700229D
:090D890020B0037F01227F00224B
:090D920020B1037F01227F002241
:1009A4007537007538007539137B007A00790A7D34
:1009B4000A120AD0E4FFEFC3940274809480503882
:1009C400EF75F00BA42423F87600087664EF75F035
:1009D4000BA42420F87602EF75F00BA42425F8E488
:1009E400F6EF75F00BA42426F8E4F6EF75F00BA4EB
:1009F4002427F8E4F60F80BE751DFF751E0D751FC4
:0A0A0400897528FF75290D752A92E7
:010A0E0022C5
:02037B008F3BB6
:10037D00EF75F00BA4241DF808E6FA08E6AE024E60
:10038D0070030204F7EF75F00BA4241DF9E4FAFBDA
:10039D00F53CF53D893E12021F1202C8EF700302B3
:1003AD00048FAB3CAA3DA93E900003120037FF7E9F
:1003BD0000C3940574809480500890000374050266
:1003CD0004F4C3EF940AEE64809480500890000307
:1003DD007401020086900008120037701890000812
:1003ED00041200CB7B007A00790AE53B75F003A47B
:1003FD0004FD1207CEAB3CAA3DA93E9000061201AA
:10040D004EFFAEF0D39400EE940050030204F7902B
:10041D00000412014EC39FE5F09E5026900004E4A7
:10042D0075F001120186FCE5F06F7002EC6E600351
:10043D000204F7FB7A00790AE53B75F003A4240367
:10044D00803CAB3CAA3DA93E900009120037FFD37A
:10045D0094007480948050030204F790000A740194
:10046D00120086C39F50030204F790000AE41200A5
:10047D00CB7B007A00790AE53B75F003A404FD02FD
:10048D0007CEAB3CAA3DA93E900003120037FF7E7C
:10049D0000D3940574809480400A90000374051273
:1004AD0000CB8030EF4E600A90000374FF1200867F
:1004BD008022900008120037640170189000081215
:1004CD0000CB7B007A00790AE53B75F003A424028A
:1004DD00FD1207CEAB3CAA3DA93E900004E4F5F019
:0A04ED001201F290000AE41200CBA5
:0104F70022E2
:10000300E4F53AC3E53A9402748094805009AF3A18
:0700130012037B053A80ECAB
:01001A0022C3
:100D2C007580FFC2B2D2B3D2B4AF80C2B4EF20E7A9
:010D3C00F6C0
:010D3D002293
:100D6000AE07120D2CC2B2C2B38E80D2B4C2B4226E
:100D7000AE07120D2CD2B2C2B38E80D2B4C2B4224E
:100D3E00ED7004AC078004EF2440FCEC4480FF020D
:020D4E000D6036
:100C80008B3A8A3B893C120D3EAB3AAA3BA93C12F7
:100C9000001E6013053CE53C7002053B14F9120090
:080CA0001EFF120D7080E2221C
:100D18007F38120D607F0C120D607F06120D607F08
:040D280001020D6057
:100AD0008B338A348935AB37AA38A939C003C002B1
:100AE000C001AB33AA34A93590000512026FAB33B5
:100AF000AA34A93574FFF5F01201D3AB33AA34A997
:100B00003590000274FFF5F01201F2900004ED122E
:070B100000CB7E007F0122F3
:100B17008B638A6489657B007A007900C003C00211
:100B2700C001AB63AA64A96590000512026FAB63AD
:100B3700AA64A96574FFF5F01201D3AB63AA64A98F
:100B47006590000274FFF5F01201F2900004E412C0
:070B570000CB7E007F0122AC
:1007CE008D428B3F8A408941120C21EF4E6004E42A
:1007DE00FEFF22AB3FAA40A941120D02EF4E600C64
:1007EE00AB3FAA40A941E4F5F01201D3AB3FAA40BA
:1007FE00A94190000212014E2401FFE435F0FE9053
:10080E000004120037FD7C001200ED900002EC8D0A
:10081E00F01201F290000512023FC003C002C001A7
:10082E00AB3FAA40A94190000212014ED001D00266
:10083E00D003F58285F083E5421200CB7E007F0166
:01084E002287
:06084F008B3A8A3B893C54
:10085500120BE28E3D8F3EAB3AAA3BA93C120D022C
:10086500EF4E6004E4FEFF22AB3AAA3BA93C9000A0
:100875000212014EFFAEF0120123B5071EE5F0B5D9
:10088500061974FFF5F01201D3AB3AAA3BA93C90C7
:10089500000274FFF5F01201F28022AB3AAA3BA9DF
:1008A5003C900004120037FD7C001201232401FF57
:1008B500E435F0FE1200EDEC8DF01201D3AE3DAF44
:0108C5003EF4
:0108C600220F
:100BE2008B3F8A408941120D02EF4E60057EFF7FE6
:100BF200FF22AB3FAA40A94190000512023FC00369
:100C0200C002C001AB3FAA40A941120123D001D0CA
:0F0C120002D003F58285F083120037FF7E0022A7
:100BA0008B668A678968120D02EF4E60057EFF7FB3
:100BB000FF22AB66AA67A96890000512023FC00336
:100BC000C002C001AB66AA67A96890000212014E7C
:100BD000D001D002D003F58285F083120037FF7E6A
:020BE0000022F1
:100D0200120123FFAEF0BEFF08BFFF057E007F0188
:060D1200227E007F00229A
:100C21008B438A44894590000212014E2401FFE45E
:100C310035F0FE900004120037FD7C001200ED1229
:100C41000123B50509ECB5F0057E007F01227E0088
:030C51007F0022FF
:100A0F008B698A6A896BE92404F9E43AFAC003C056
:100A1F0002C001AA6AA96B90000112026FAB69AA0A
:100A2F006AA96B90000474FFF5F01201F2E9240437
:100A3F00F9E43AFAC003C002C001AB69AA6AA96B14
:100A4F0090000612026FAB69E56B2404F9E4356A76
:100A5F00FAC003C002C001AA6AA96B900009120272
:0B0A6F006FAB69AA6AA96BE40200B932
:100CCD008B6C8A6D896E7B007A007900C003C0023F
:0F0CDD00C001AB6CAA6DA96E90000B12026F22C2
:0606A7008B468A478948DA
:1006AD0090000112023F8B4C8A4D894EC003C0024F
:1006BD00C001AB49AA4AA94B90000212026FAB4C84
:1006CD00AA4DA94E90000512023FC003C002C00101
:1006DD00AB49AA4AA94B90000512026FAB49AA4A31
:1006ED00A94BC003C002C001AB4CAA4DA94E90004E
:1006FD000512023F90000212026FAB49AA4AA94BA4
:10070D00C003C002C001AB4CAA4DA94E900005120A
:10071D00026FAB46AA47A948C003C002C001AB494E
:10072D00AA4AA94B90000B12026FAB46AA47A948E3
:05073D007401020064DC
:0604F8008B4F8A50895170
:1004FE00AB52AA53A954120123FFAEF0BEFF17BF91
:10050E00FF14AB4FAA50A95190000912023F8B5510
:10051E008A5689578039E5512404F9E43550854FC0
:10052E0055F5568957AB55AA56A957900002120297
:10053E003F120123D39FE5F09E5014AB55AA56A946
:10054E005790000212023F8B558A56895780D6ABC0
:10055E0055AA56A95790000212023FC003C002C00E
:10056E0001AB52AA53A95490000212026FAB52AAC9
:10057E0053A954C003C002C00190000212023F9062
:10058E00000512026FAB55AA56A957C003C002C090
:10059E0001AB52AA53A95490000512026FAB52AA96
:1005AE0053A954C003C002C001AB55AA56A9579017
:1005BE00000212026FAB4FAA50A951C003C002C075
:1005CE0001AB52AA53A95490000B12026FAB4FAA63
:0805DE0050A9517401020064F0
:0605E6008B588A59895A66
:1005EC0090000B12023F8B5B8A5C895DAB58AA5959
:1005FC00A95A90000512023FC003C002C001AB58BB
:10060C00AA59A95A90000212023F90000512026FDB
:10061C00AB58AA59A95A90000212023FC003C0025B
:10062C00C001AB58AA59A95A90000512023F90007C
:10063C000212026FAB5BAA5CA95D90000112023F33
:10064C00E558855983855A826B7008E96582700379
:10065C00EA6583701EAB58AA59A95A90000512027C
:10066C003FC003C002C001AB5BAA5CA95D90000156
:10067C0012026F7B007A007900C003C002C001AB8C
:10068C0058AA59A95A90000B12026FAB5BAA5CA92D
:0A069C005D74FF12006412001EFFDF
:0106A6002231
:10074E00020C54E493A3F8E493A34003F68001F261
:10075E0008DFF48029E493A3F85407240CC8C333AC
:10076E00C4540F4420C8834004F456800146F6DF7B
:10077E00E4800B0102040810204080900CA8E47E57
:10078E00019360BCA3FF543F30E509541FFEE49370
:10079E00A360010ECF54C025E060A840B8E493A337
:1007AE00FAE493A3F8E493A3C8C582C8CAC583CA62
:1007BE00F0A3C8C582C8CAC583CADFE9DEE780BE1A
:010CCC000027
:10001E00BB010689828A83E0225002E722BBFE02E0
:09002E00E32289828A83E4932213
:10003700BB010CE58229F582E5833AF583E022507E
:1000470006E92582F8E622BBFE06E92582F8E222C8
:0D005700E58229F582E5833AF583E49322E2
:10006400BB010989828A83F8E028F022500327F72C
:1000740022BBFE05F8E328F3228A838982F8E493FD
:02008400282230
:10008600BB010FF8E58229F582E5833AF583E0287E
:10009600F0225009C58229F8E58226F622BBFE0920
:1000A600C58229F8E22582F222F8EA2583F583E95A
:0300B6009328226A
:1000B900BB010689828A83F0225002F722BBFE0126
:0200C900F32220
:1000CB00F8BB010DE58229F582E5833AF583E8F06B
:1000DB00225006E92582C8F622BBFE05E92582C817
:0200EB00F222FF
:1000ED00C2D5EC30E709B2D5E4C39DFDE49CFCEE2E
:1000FD0030E715B2D5E4C39FFFE49EFE1202CEC3D6
:10010D00E49DFDE49CFC80031202CE30D507C3E4D0
:06011D009FFFE49EFE229C
:10012300BB010A89828A83E0F5F0A3E022500687A7
:10013300F009E71922BBFE07E3F5F009E319228969
:0B014300828A83E493F5F0740193229C
:10014E00BB0110E58229F582E5833AF583E0F5F0EF
:10015E00A3E0225009E92582F886F008E622BBFECC
:10016E000AE92582F8E2F5F008E222E5832AF58312
:08017E00E993F5F0A3E99322D7
:10018600BB010DC58229C582C5833AC583020323F7
:100196005011C58229F808E5F026F618F5F0E58233
:1001A60036F622BBFE11C58229F808E225F0F5F0E5
:1001B600F218E23582F222F8E58229F582E5832AF1
:0D01C600F58374019325F0F5F0E4933822E1
:1001D300BB010A89828A83F0E5F0A3F0225006F777
:0F01E30009A7F01922BBFE06F3E5F009F3192274
:1001F200F8BB0111E58229F582E5833AF583E8F03F
:10020200E5F0A3F0225009E92582C8F608A6F022FB
:0D021200BBFE09E92582C8F2E5F008F222E2
:10021F00BB010789828A8302034B5005E9F8020369
:10022F0039BBFE05E9F802035D89828A8302036FF9
:10023F00BB010DE58229F582E5833AF58302034B75
:10024F005007E92582F8020339BBFE07E92582F83A
:10025F0002035DE58229F582E5833AF58302036F98
:10026F00BB0120E58229F582E5833AF583D0F0D0F2
:10027F00E0F8D0E0F9D0E0FAD0E0FBE8C0E0C0F061
:10028F000203545018E92582F8D083D082D0E0F9C8
:10029F00D0E0FAD0E0FBC082C083020342BBFE185D
:1002AF00E92582F8D083D082D0E0F9D0E0FAD0E00F
:0902BF00FBC082C0830203662229
:0602C8008A838982E473C1
:1002CE00BC000BBE0029EF8DF084FFADF022E4CC14
:1002DE00F875F008EF2FFFEE33FEEC33FCEE9DECDD
:1002EE00984005FCEE9DFE0FD5F0E9E4CEFD22ED23
:1002FE00F8F5F0EE8420D21CFEADF075F008EF2F6D
:10030E00FFED33FD4007985006D5F0F222C398FD5D
:05031E000FD5F0EA22FA
:10032300C5F0F8A3E028F0C5F0F8E5821582700265
:060333001583E038F02202
:09033900E6FB08E6FA08E6F922E9
:09034200EBF608EAF608E9F622E0
:09034B00E0FBA3E0FAA3E0F922B3
:09035400EBF0A3EAF0A3E9F022AA
:09035D00E2FB08E2FA08E2F922D1
:09036600EBF208EAF208E9F222C8
:0C036F00E493FB740193FA740293F922EA
:00000001FF
