:030000000209B73B
:0C09B700787FE4F6D8FD7581780209FE17
:06102F0068656C6C6F00A7
:100F9E00120B767BFF7A10792FE4FDFF120EB980CB
:010FAE00FE44
:100EEA0000000000000000000000000000000000F8
:100EFA0000000000000000000000000000000000E8
:0A0F0A0000000000000000000000DD
:100DE70020211A000000000030163110062200FFF3
:100DF7001013FF08E2FF0C87FF0E86FF0D72FF0F2F
:070E070054FF0EB9011900B0
:100F1400E56B64017006750801756B02E56B64028C
:0F0F2400700BE50864017005F5087F01227F005E
:010F3300229B
:100F3400E56B64037006750901756B02E56B640269
:0F0F4400700BE50964017005F5097F01227F003C
:010F5300227B
:0C0FFB007B007A00791A12064F7F00225A
:100E5300D3E5199400748094807B007A00791A405A
:100E630005120E1D800312072E0519D3E5199406EA
:100E730074809480400C7B007A00791A12072EE468
:030E8300F519223C
:100B76007B007A00791A85288285278312032C1236
:100B86000DAD120F547B007A00790C120C2E753EB7
:100B9600FF753F0F7540347541FF75420E7543531F
:100BA600E4F544FB7A00790C120A43753EFF753F63
:100BB6000F7540147541FF75420F7543FB7544016F
:0C0BC6007B007A00790C120A43020FAF8A
:100FAF00438910758DD8758BF0D2ABD2AFD28E220C
:0C1007001200037B007A00790C020CDE62
:09101D007B007A00791A020386B7
:03001B00020AAF27
:100AAF00C0E0C0F0C083C082C0D075D000C000C00D
:0D0ABF0001C002C003C004C005C006C0078E
:100ACC00758DD8758BF0050A050BAF0AEF3395E0E1
:100ADC00FEEF640A4E7005F50A12101DAF0BEF33D2
:0E0AEC0095E0FEEF64014E7005F50B12100749
:100AFA00D007D006D005D004D003D002D001D00050
:0B0B0A00D0D0D082D083D0F0D0E032F9
:0A101300E92404F9E43AFA020D7230
:0608E2008B3B8A3C893DBE
:1008E800783E7C007D007BFF7A0E79EA7E007F0AE5
:1008F8001200EE78487C007D007BFF7A0E79F47E4A
:10090800007F0A1200EEAB3BAA3CA93D90000612FC
:10091800012DFFC4540F2430F53EEF540F2430F559
:100928003F75402D90000512012DFFC4540F24304F
:10093800F541EF540F2430F54275432D9000041211
:10094800012DFFC4540F2430F544EF540F2430F523
:100958004590000A12012DFFC4540F2430F548EFCA
:10096800540F2430F549754A2D90000812012DFFC7
:10097800C4540F2430F54BEF540F2430F54C754D0B
:100988002D90000712012DFFC4540F2430F54EEFAF
:10099800540F2430F54F7B007A00793EE4FDFF12B6
:0F09A8000EB97B007A0079487D01E4FF020EB999
:060C87008B3B8A3C893D15
:100C8D00783E7C007D007BFF7A0E79FE7E007F0929
:100C9D001200EE78477C007D007BFF7A0F79077E8E
:100CAD00007F0D1200EE7557007558007559477B82
:100CBD00007A00793E12080B7B007A00793EE4FD44
:100CCD00FF120EB97B007A0079477D01E4FF020E19
:010CDD00B95D
:06080B008B548A5589564A
:100811007B007A00795A120E86E55CC4540F2430AD
:10082100AB54AA55A95612018DE55C540F2430AB87
:1008310054AA55A95690000112019F900002742DEF
:1008410012019FE55BC4540F243090000312019FF5
:10085100E55B540F243090000412019F9000057451
:100861002D12019FE55AC4540F2430900006120145
:100871009FE55A540F243090000712019FE560C490
:10088100540F2430AB57AA58A95912018DE5605471
:100891000F2430AB57AA58A95990000112019F901B
:1008A1000002742D12019FE55EC4540F24309000A4
:1008B1000312019FE55E540F243090000412019F42
:1008C100900005742D12019FE55DC4540F243090F2
:1008D100000612019FE55D540F24309000070201CC
:0108E1009F77
:100F68007580FFC2B2D2B3D2B4AF80C2B4EF20E76B
:010F7800F682
:010F79002255
:100FBF00AE07120F68C2B2C2B38E80D2B4C2B422CF
:100FCF00AE07120F68D2B2C2B38E80D2B4C2B422AF
:100F7A00ED7004AC078004EF2440FCEC4480FF02CF
:020F8A000FBF97
:100EB9008B548A558956AC077F0C120FBFAF0412A9
:100EC9000F7AAB54AA55A95612011460130556E5B9
:100ED900567002055514F9120114FF120FCF80E262
:010EE90022E6
:100F8C00120F7AEB640170047F0F80027F0C120F3A
:020F9C00BF2272
:100F54007F38120FBF7F0C120FBF7F06120FBF7FA7
:040F640001020FBFB8
:0E0FDF0081838587898B8D80828486888A8CA9
:100D2B00C29200C29100D29200E4FEEEC39408740A
:100D3B008094805011EF139290EFC313FFD2910068
:100D4B00C291000E80E5E4FEEEC39408748094809B
:100D5B005011ED139290EDC313FDD29100C291008F
:060D6B000E80E5C29200BB
:010D7100225F
:100BD200C29200C29100D29200E4FDEDC394087467
:100BE2008094805011EF139290EFC313FFD29100C3
:100BF200C291000D80E500E4FDEDC3940874809479
:100C020080501AA290E433FFC43333335480FCEE95
:100C1200C3134CFED29100C291000D80DCC292003F
:0B0C2200D29100C29000D29000AF06FB
:010C2D0022A4
:060D72008B3B8A3C893D29
:100D7800E4FD7F8E120D2BE4FCECC3940774809481
:100D880080501BEC900FE693FFAB3BAA3CA93D8C2F
:100D98008275830012012DFD120D2B0C80DB7D80E6
:050DA8007F8E020D2BFF
:060E86008B628A6389649F
:100E8C00E4F565C3E565940774809480501EE565B0
:100E9C00900FDF93FF120BD2AB62AA63A964856536
:0C0EAC0082758300EF12019F056580D75E
:010EB8002217
:0E0FED0020200065727200000000000000006D
:06072E008B3B8A3C893D73
:10073400783E7C007D007BFF7A0F79F47E007F0792
:100744001200EEAB3BAA3CA93D120114F412018D38
:10075400AB3BAA3CA93D1201147055F545C3E545D0
:100764009407748094805023AB3BE53D2404F9E462
:10077400353CFA7E00E92545F9EE3AFA120114FFF8
:10078400743E2545F8A607054580D27B007A00799A
:100794003EC003C002C001AB3BAA3CA93D90001877
:1007A40012029F89828A83D001D002D00302032CD3
:1007B4007B007A00793EC003C002C001AB3BAA3C77
:1007C400A93D90001512029F89828A83D001D0022C
:1007D400D00312032CE4F545C3E5459407748094D3
:1007E400805023743E2545F8E6FFAB3BE53D2404E9
:1007F400F9E4353CFAE5457C0029F9EC3AFAEF12C4
:06080400018D054580D2C4
:01080A0022CB
:100E1D001201146030900001740112015A9000010A
:100E2D0012012D64057008900001740612019F9047
:100E3D00000112012DD39406748094804007900018
:060E4D0001E412019F22E6
:06064F008B3B8A3C893D53
:10065500120114700302072D90000112012DFFFDF8
:100665007C00E92404F9E43AFAE92DF9EC3AFA12A6
:100675000114FEC4540F75F006A4FDC3EE9DFE0ED5
:10068500EFFD6403700EEED3941F74809480406D6B
:100695007E018069ED64044C700EEED3940C748079
:1006A500948040597E018055AB3BAA3CA93D900002
:1006B5000112012DFD7C006402700EEED3941874B6
:1006C5008094804038E4FE8034ED64064C700EEE74
:1006D500D39463748094804024E4FE8020AB3BAACD
:1006E5003CA93D90000112012DC3940274809480B1
:1006F500500BEE943C748094804002E4FEEE75F05D
:100705000A8475F006A42EFEAB3BAA3CA93D9000D9
:100715000112012DFD7C00E92404F9E43AFAE92DE2
:08072500F9EC3AFAEE12018D25
:01072D0022A9
:060B15008B768A778978D7
:100B1B00120114605590000112012DFFFD7C00E9BC
:100B2B002404F9E43AFAE92DF9EC3AFA120114FE2D
:100B3B00C4540F75F006A4FDC3EE9DFED394007450
:100B4B0080948040011EEE75F00A8475F006A42E89
:100B5B00FEAB76EFFD7C00E5782404F9E43577FAFB
:0A0B6B00E92DF9EC3AFAEE12018DC3
:010B7500225D
:100386008B668A678968900002E475F0641201F949
:100396001201147012AB66AA67A968C003C002C036
:1003A6000190001202052BAB66AA67A968900002AD
:1003B6001201C1D394F4E5F0940150030204FE90B7
:1003C600000112012D1460431460661470030204C8
:1003D6005D14700302048524FE70030204AD240636
:1003E60060030204D57BFF7A0F79EDC003C002C01B
:1003F60001AB66AA67A96890001E12029F89828ACD
:1004060083D001D002D003E4FD80707BFF7A0F79A0
:10041600EDC003C002C001AB66AA67A96890001EC2
:1004260012029F89828A83D001D002D003E4FD8024
:10043600727BFF7A0F79EDC003C002C001AB66AADA
:1004460067A96890001E12029F89828A83D001D014
:1004560002D003E4FD80757BFF7A0F79EDC003C0FF
:1004660002C001AB66AA67A96890001E12029F89A6
:10047600828A83D001D002D0037D017F0680767BFD
:10048600FF7A0F79EDC003C002C001AB66AA67A967
:100496006890001E12029F89828A83D001D002D002
:1004A600037D017F03804E7BFF7A0F79EDC003C089
:1004B60002C001AB66AA67A96890001E12029F8956
:1004C600828A83D001D002D0037D01E4FF80267B9F
:1004D600FF7A0F79F0C003C002C001AB66AA67A914
:1004E6006890001E12029F89828A83D001D002D0B2
:1004F600037D017F0B12032CAB66AA67A9689000E7
:10050600021201C1D394E8E5F0940340289000025A
:10051600E4F5F0120246C003C002C001AB66AA674A
:10052600A96890000F12029F89828A83D001D002A7
:06053600D00312032C2289
:0E0E0E00096D000000000000000000016C00F3
:0910260020B0037F01227F0022AB
:100DAD00E4FFEFC39401748094805024EF75F00933
:100DBD00A42473F87600087628EF75F009A4247042
:100DCD00F87602EF75F009A42475F8E4F60F80D2D9
:090DDD00756DFF756E10756F262F
:010DE60022EA
:02053C008F67C7
:10053E00EF75F009A4246DF808E6FA08E6AE024E4F
:10054E00700302064EEF75F009A4246DF9E4FAFB70
:10055E00F568F569896A12027F120328EF700302AB
:10056E0005F5AB68AA69A96A90000312012DFF7EFA
:10057E0000C39405748094805008900003740502A3
:10058E00019FC3EF940AEE6480948050089000039C
:10059E00740102015A90000812012D700790000894
:1005AE000412019F9000061201C1FFAEF0D3940019
:1005BE00EE9400500302064E9000041201C1C39F38
:1005CE00E5F09E507B900004E475F0011201F9FCF9
:1005DE00E5F06F7002EC6E7067E56775F003A424AA
:1005EE0003F56B756C0122AB68AA69A96A900003CA
:1005FE0012012DFF7E00D3940574809480400A90E2
:10060E000003740512019F802EEF4E600A900003C6
:10061E0074FF12015A802090000812012D6401709F
:10062E001690000812019FE56C7009E56775F003DE
:10063E00A404F56BE4F56C900004E4F5F0120246A8
:01064E002289
:10000300E4F566C3E5669401748094805009AF6695
:0700130012053C056680ECBC
:01001A0022C3
:060CDE008B668A6789683D
:100CE400E4F569F569AB66AA67A968120114FFE522
:100CF40069C39F503190000175F003E569120273D6
:100D040012029F120328EF64017017AB66AA67A949
:100D14006890000775F003E56912027312029F12CE
:060D24000328056980BFF1
:010D2A0022A6
:100A43008B3B8A3C893D90000175F003E54412021B
:100A53007312029FE94A6013AB3BAA3CA93D120102
:100A630014FFE544D39F40037F4222AB3EAA3FA934
:100A730040C003C002C001AB3BAA3CA93D900001AA
:100A830075F003E5441202731202CFAB41AA42A9E7
:100A930043C003C002C001AB3BAA3CA93D90000781
:0C0AA30075F003E5441202731202CF222A
:060C2E008B3B8A3C893D6E
:100C3400740212018DE4FFEFC39402748094805017
:100C4400417B007A007900C003C002C001AB3BAA1B
:100C54003CA93D90000175F003EF1202731202CF1C
:100C64007B007A007900C003C002C001AB3BAA3C00
:100C7400A93D90000775F003EF1202731202CF0F23
:020C840080B539
:010C8600224B
:1009C300020F9EE493A3F8E493A34003F68001F29D
:1009D30008DFF48029E493A3F85407240CC8C33335
:1009E300C4540F4420C8834004F456800146F6DF04
:1009F300E4800B0102040810204080900DE7E47EA0
:100A0300019360BCA3FF543F30E509541FFEE493F8
:100A1300A360010ECF54C025E060A840B8E493A3BF
:100A2300FAE493A3F8E493A3C8C582C8CAC583CAEA
:100A3300F0A3C8C582C8CAC583CADFE9DEE780BEA2
:010E1C0000D5
:10001E00E709F608DFFA8046E709F208DFFA803EC4
:10002E0088828C83E709F0A3DFFA8032E309F608B1
:10003E00DFFA8078E309F208DFFA807088828C8319
:10004E00E309F0A3DFFA806489828A83E0A3F608CD
:10005E00DFFA805889828A83E0A3F208DFFA804CA7
:10006E0080D280FA80C680D4806980F2803380107E
:10007E0080A680EA809A80A880DA80E280CA8033E7
:10008E0089828A83ECFAE493A3C8C582C8CCC5835F
:10009E00CCF0A3C8C582C8CCC583CCDFE9DEE7802F
:1000AE000D89828A83E493A3F608DFF9ECFAA9F0AE
:1000BE00EDFB2289828A83ECFAE0A3C8C582C8CC04
:1000CE00C583CCF0A3C8C582C8CCC583CCDFEADE1D
:1000DE00E880DB89828A83E493A3F208DFF980CC7F
:1000EE0088F0EF60010E4E60C388F0ED2402B40478
:1000FE000050B9F582EB2402B4040050AF2323451F
:06010E00822390006E73D5
:10011400BB010689828A83E0225002E722BBFE02E9
:09012400E32289828A83E493221C
:10012D00BB010CE58229F582E5833AF583E0225087
:10013D0006E92582F8E622BBFE06E92582F8E222D1
:0D014D00E58229F582E5833AF583E49322EB
:10015A00BB010FF8E58229F582E5833AF583E028A9
:10016A00F0225009C58229F8E58226F622BBFE094B
:10017A00C58229F8E22582F222F8EA2583F583E985
:03018A0093282295
:10018D00BB010689828A83F0225002F722BBFE0151
:02019D00F3224B
:10019F00F8BB010DE58229F582E5833AF583E8F096
:1001AF00225006E92582C8F622BBFE05E92582C842
:0201BF00F2222A
:1001C100BB0110E58229F582E5833AF583E0F5F07C
:1001D100A3E0225009E92582F886F008E622BBFE59
:1001E1000AE92582F8E2F5F008E222E5832AF5839F
:0801F100E993F5F0A3E9932264
:1001F900BB010DC58229C582C5833AC58302032E79
:100209005011C58229F808E5F026F618F5F0E582BF
:1002190036F622BBFE11C58229F808E225F0F5F071
:10022900F218E23582F222F8E58229F582E5832A7D
:0D023900F58374019325F0F5F0E49338226D
:10024600F8BB0111E58229F582E5833AF583E8F0EA
:10025600E5F0A3F0225009E92582C8F608A6F022A7
:0D026600BBFE09E92582C8F2E5F008F2228E
:0C027300A42582F582E5F03583F5832296
:10027F00BB010789828A830203565005E9F80203FE
:10028F0044BBFE05E9F802036889828A8302037A78
:10029F00BB010DE58229F582E5833AF5830203560A
:1002AF005007E92582F8020344BBFE07E92582F8CF
:1002BF00020368E58229F582E5833AF58302037A22
:1002CF00BB0120E58229F582E5833AF583D0F0D092
:1002DF00E0F8D0E0F9D0E0FAD0E0FBE8C0E0C0F001
:1002EF0002035F5018E92582F8D083D082D0E0F95D
:1002FF00D0E0FAD0E0FBC082C08302034DBBFE18F2
:10030F00E92582F8D083D082D0E0F9D0E0FAD0E0AE
:09031F00FBC082C08302037122BD
:060328008A838982E47360
:10032E00C5F0F8A3E028F0C5F0F8E582158270025A
:06033E001583E038F022F7
:09034400E6FB08E6FA08E6F922DE
:09034D00EBF608EAF608E9F622D5
:09035600E0FBA3E0FAA3E0F922A8
:09035F00EBF0A3EAF0A3E9F0229F
:09036800E2FB08E2FA08E2F922C6
:09037100EBF208EAF208E9F222BD
:0C037A00E493FB740193FA740293F922DF
:00000001FF
