:030000000204B83F
:0C04B800787FE4F6D8FD75815F0204FF38
:100A16006F6B6B00C0F9A4B0999282F880908883BE
:040A2600C6A1868E51
:1008FD00120AA27B007A00790C1206438E418F42B8
:10090D007BFF7A0A7916E4FDFF1209D8C3E5156459
:10091D0080948040DEE5169410E515648094805037
:10092D00D2741A2516F582740A3515F583E493F5FC
:03093D00A080C0D7
:100831008B438A448945AB48AA49A94AC003C002EF
:10084100C001AB43AA44A94590000612023BAB4349
:10085100AA44A94574FFF5F012019FAB43AA44A92C
:100861004590000274FFF5F01201BE900004EC8D7A
:04087100F00201BED2
:100875008B588A59895A7B007A007900C003C002D7
:10088500C001AB58AA59A95A90000612023BAB58B1
:10089500AA59A95A74FFF5F012019FAB58AA59A994
:1008A5005A90000274FFF5F01201BE900004E4F5C1
:0408B500F00201BE8E
:1005C9008C538D548B508A518952120976EF4E60A3
:1005D90004E4FEFF22AB50AA51A952120A00EF4EC1
:1005E900600CAB50AA51A952E4F5F012019FAB502F
:1005F900AA51A95290000212011A2401FFE435F010
:10060900FE90000412011AFDACF01200B99000022C
:10061900EC8DF01201BE90000212011A25E0FFE5EF
:10062900F033FE90000612020B8F828E83E553850C
:0A06390054F01201BE7E007F012282
:060643008B438A44894547
:100649001208B98E468F47AB43AA44A945120A003E
:10065900EF4E6004E4FEFF22AB43AA44A945900093
:100669000212011AFFAEF01200EFB5071EE5F0B550
:10067900061974FFF5F012019FAB43AA44A94590EE
:10068900000274FFF5F01201BE8022AB43AA44A90F
:100699004590000412011AFDACF01200EF2401FF8D
:1006A900E435F0FE1200B9EC8DF012019FAE46AFB1
:0106B90047F9
:0106BA00221D
:1008B9008B488A49894A120A00EF4E60057EFF7FFC
:1008C900FF22AB48AA49A94A90000612020BC003AD
:1008D900C002C001AB48AA49A94A1200EF25E0FFAE
:1008E900E5F033D001D002D0038F82F58312011ACB
:0408F900FFAEF0223C
:100940008B5B8A5C895D120A00EF4E60057EFF7F3B
:10095000FF22AB5BAA5CA95D90000212011A25E0A0
:10096000FFE5F033FE90000612020B8F828E831299
:06097000011AFFAEF022A7
:100A00001200EFFFAEF0BEFF08BFFF057E007F01C2
:060A1000227E007F00229F
:100976008B558A56895790000212011A2401FFE40A
:1009860035F0FE90000412011AFDACF01200B91207
:1009960000EFB50509ECB5F0057E007F01227E006B
:0309A6007F0022AD
:090AA2001206BB120A2A020A62C4
:100A6200438910758DFC758B18D2ABD2AFD28E2212
:03001B000207DEFB
:1007DE00C0E0C0F0C083C082C0D075D000C000C0E1
:0D07EE0001C002C003C004C005C006C00762
:1007FB00758DFC758B18055FE55F7002055E640AED
:0B080B00455E7007F55EF55F120ABD48
:10081600D007D006D005D004D003D002D001D00036
:0B082600D0D0D082D083D0F0D0E032E0
:060ABD00120544020003D3
:100A7200EEEDEBE7DEDDDBBBBEBDBBB77E7D7B779C
:1009A900162B0000000000000000000000000000FD
:1009B9000000000000000000141700000000000003
:0E09C900000000000000000000000000000020
:10072800E4FDFBFAEDC39404748094805028ED60D6
:100738000EEBC4F8540FC868FBEAC454F048FAA892
:10074800057480088002C313D8FCF4F590E5905432
:100758000F42030D80CE7D10AF051DEF6019AE026C
:10076800EBA805088005CEC313CE13D8F920E0E81E
:0B077800AF057515008F16AE15AF160B
:010783002253
:100784007590F0AF90EF64F060460509E5097002DA
:100794000508D39403E5089400403AAF907E0075B1
:1007A400900FAD90ED4FFFE4FDFC74722DF5827453
:1007B4000A3CF583E4936F7001EE600B0DBD0001FC
:1007C4000CED64104C70E38C158D16AE15AF16222B
:0907D400E4F508F5097EFF7FFF42
:0107DD0022F9
:1005440075900FAF90EF640F6071050BE50B7002AF
:10055400050AD39403E50A9400405B75900FAF90AD
:10056400EF24F9602224FC601624FE600A14701D36
:10057400E4F515F5168016751500751601800E75CF
:10058400150075160280067515007516037590F032
:10059400AF90EF2490601424C0600C24E060042425
:1005A400F080137404800674088002740C2516F518
:1005B40016E43515F515AE15AF1622E4F50AF50B5C
:0405C4007EFF7FFF38
:0105C8002210
:090AAB0020B1037F01227F00222B
:090AB40020B2037F01227F002221
:1006BB00754800754900754A177B007A00790C7DE7
:1006CB000A7C00120831E4FFEFC39402748094801B
:1006DB005038EF75F00BA42431F87600087664EFF0
:1006EB0075F00BA4242EF87602EF75F00BA42433CF
:1006FB00F8E4F6EF75F00BA42434F8E4F6EF75F09C
:10070B000BA42435F8E4F60F80BE752BFF752C0A6D
:0C071B00752DAB7536FF75370A7538B4C4
:0107270022AF
:020347008F4CD9
:10034900EF75F00BA4242BF9E4FAFBF54DF54E8972
:100359004F1201EB120294EF700302044BAB4DAA4A
:100369004EA94F900003120037FF7E00C394057415
:10037900809480500890000374050204B4C3EF947C
:100389000AEE6480948050089000037401020064AE
:10039900900008120037701D90000804120097E5BC
:1003A9004C75F003A42401FDE435F0FC7B007A00D0
:1003B900790C1205C9AB4DAA4EA94F90000612013E
:1003C9001AFFAEF0D39400EE940050030204B790E4
:1003D900000412011AC39FE5F09E5021900004E425
:1003E90075F001120152FCE5F06F7002EC6E6003CA
:1003F9000204B7E54C75F003A424038037AB4DAA7A
:100409004EA94F900009120037FFD39400748094CD
:100419008050030204B790000A7401120064C39F5C
:1004290050030204B790000AE4120097E54C75F0F6
:1004390003A42401FDE435F0FC7B007A00790C0269
:1004490005C9AB4DAA4EA94F900003120037FF7E94
:1004590000D3940574809480400A900003740512B7
:1004690000978034EF4E600A90000374FF12006415
:1004790080269000081200376401701C9000081251
:100489000097E54C75F003A42402FDE435F0FC7BEC
:10049900007A00790C1205C9AB4DAA4EA94F9000FC
:0E04A90004E4F5F01201BE90000AE412009780
:0104B7002222
:10000300E4F54BC3E54B9402748094805009AF4BE5
:07001300120347054B80ECCE
:01001A0022C3
:100A3E007580FFC2A0D2A1D2A2AF80C2A2EF20E7E2
:010A4E00F6B1
:010A4F002284
:100A8200AE07120A3EC2A0C2A18E80D2A2C2A22288
:100A9200AE07120A3ED2A0C2A18E80D2A2C2A22268
:100A5000ED7004AC078004EF2440FCEC4480FF02FE
:020A60000A8208
:1009D8008B438A448945120A50AB43AA44A945125D
:1009E800001E60130545E5457002054414F9120020
:0809F8001EFF120A9280E222A8
:100A2A007F38120A827F0C120A827F06120A827F9C
:040A3A0001020A8229
:1004C4000208FDE493A3F8E493A34003F68001F249
:1004D40008DFF48029E493A3F85407240CC8C33339
:1004E400C4540F4420C8834004F456800146F6DF08
:1004F400E4800B01020408102040809009A9E47EE6
:10050400019360BCA3FF543F30E509541FFEE493FC
:10051400A360010ECF54C025E060A840B8E493A3C3
:10052400FAE493A3F8E493A3C8C582C8CAC583CAEE
:10053400F0A3C8C582C8CAC583CADFE9DEE780BEA6
:0109D700001F
:10001E00BB010689828A83E0225002E722BBFE02E0
:09002E00E32289828A83E4932213
:10003700BB010CE58229F582E5833AF583E022507E
:1000470006E92582F8E622BBFE06E92582F8E222C8
:0D005700E58229F582E5833AF583E49322E2
:10006400BB010FF8E58229F582E5833AF583E028A0
:10007400F0225009C58229F8E58226F622BBFE0942
:10008400C58229F8E22582F222F8EA2583F583E97C
:030094009328228C
:10009700F8BB010DE58229F582E5833AF583E8F09F
:1000A700225006E92582C8F622BBFE05E92582C84B
:0200B700F22233
:1000B900C2D5EC30E709B2D5E4C39DFDE49CFCEE62
:1000C90030E715B2D5E4C39FFFE49EFE12029AC33E
:1000D900E49DFDE49CFC800312029A30D507C3E439
:0600E9009FFFE49EFE22D1
:1000EF00BB010A89828A83E0F5F0A3E022500687DC
:1000FF00F009E71922BBFE07E3F5F009E31922899E
:0B010F00828A83E493F5F074019322D0
:10011A00BB0110E58229F582E5833AF583E0F5F023
:10012A00A3E0225009E92582F886F008E622BBFE00
:10013A000AE92582F8E2F5F008E222E5832AF58346
:08014A00E993F5F0A3E993220B
:10015200BB010DC58229C582C5833AC5830202EF60
:100162005011C58229F808E5F026F618F5F0E58267
:1001720036F622BBFE11C58229F808E225F0F5F019
:10018200F218E23582F222F8E58229F582E5832A25
:0D019200F58374019325F0F5F0E493382215
:10019F00BB010A89828A83F0E5F0A3F0225006F7AB
:0F01AF0009A7F01922BBFE06F3E5F009F31922A8
:1001BE00F8BB0111E58229F582E5833AF583E8F073
:1001CE00E5F0A3F0225009E92582C8F608A6F02230
:0D01DE00BBFE09E92582C8F2E5F008F22217
:1001EB00BB010789828A830203175005E9F80203D2
:1001FB0005BBFE05E9F802032989828A8302033BCA
:10020B00BB010DE58229F582E5833AF583020317DD
:10021B005007E92582F8020305BBFE07E92582F8A2
:10022B00020329E58229F582E5833AF58302033B34
:10023B00BB0120E58229F582E5833AF583D0F0D026
:10024B00E0F8D0E0F9D0E0FAD0E0FBE8C0E0C0F095
:10025B000203205018E92582F8D083D082D0E0F930
:10026B00D0E0FAD0E0FBC082C08302030EBBFE18C5
:10027B00E92582F8D083D082D0E0F9D0E0FAD0E043
:09028B00FBC082C0830203322291
:060294008A838982E473F5
:10029A00BC000BBE0029EF8DF084FFADF022E4CC48
:1002AA00F875F008EF2FFFEE33FEEC33FCEE9DEC11
:1002BA00984005FCEE9DFE0FD5F0E9E4CEFD22ED57
:1002CA00F8F5F0EE8420D21CFEADF075F008EF2FA1
:1002DA00FFED33FD4007985006D5F0F222C398FD92
:0502EA000FD5F0EA222F
:1002EF00C5F0F8A3E028F0C5F0F8E582158270029A
:0602FF001583E038F02237
:09030500E6FB08E6FA08E6F9221D
:09030E00EBF608EAF608E9F62214
:09031700E0FBA3E0FAA3E0F922E7
:09032000EBF0A3EAF0A3E9F022DE
:09032900E2FB08E2FA08E2F92205
:09033200EBF208EAF208E9F222FC
:0C033B00E493FB740193FA740293F9221E
:00000001FF
