:030000000202FDFC
:0C02FD00787FE4F6D8FD758136020344DA
:1005ED00C0F9A4B0999282F880908883C6A1868EB6
:1005720012062FC3E50C6480948040F7E50D9410B9
:10058200E50C6480948050EB74ED250DF5827405C2
:0A059200350CF583E493F5A080D941
:06062F0012046A0205FD41
:1005FD00438910758DFC758B18D2ABD2AFD28E227C
:03001B0002051FBC
:10051F00C0E0C0F0C083C082C0D075D000C000C0A2
:0D052F0001C002C003C004C005C006C00723
:10053C00758DFC758B180536E53670020535640A29
:0B054C0045357007F535F53612063511
:10055700D007D006D005D004D003D002D001D000F8
:0B056700D0D0D082D083D0F0D0E032A2
:060635001203890205D545
:10060D00EEEDEBE7DEDDDBBBBEBDBBB77E7D7B7705
:1005BC00160E00000000000000000000000000000B
:0805CC00000000000000000027
:10040E00E4FDFBFAEDC39404748094805028ED60F3
:10041E000EEBC4F8540FC868FBEAC454F048FAA8AF
:10042E00057480088002C313D8FCF4F590E590544F
:10043E000F42030D80CE7D10AF051DEF6019AE0289
:10044E00EBA805088005CEC313CE13D8F920E0E83B
:0B045E00AF05750C008F0DAE0CAF0D4C
:010469002270
:1004C5007590F0AF90EF64F060460509E50970029C
:1004D5000508D39403E5089400403AAF907E007573
:1004E500900FAD90ED4FFFE4FDFC740D2DF582747A
:1004F500063CF583E4936F7001EE600B0DBD0001C2
:100505000CED64104C70E38C0C8D0DAE0CAF0D2210
:09051500E4F508F5097EFF7FFF03
:01051E0022BA
:1003890075900FAF90EF640F6071050BE50B70026C
:10039900050AD39403E50A9400405B75900FAF906A
:1003A900EF24F9602224FC601624FE600A14701DF3
:1003B900E4F50CF50D8016750C00750D01800E75B0
:1003C9000C00750D028006750C00750D037590F013
:1003D900AF90EF2490601424C0600C24E0600424E2
:1003E900F080137404800674088002740C250DF5DE
:1003F9000DE4350CF50CAE0CAF0D22E4F50AF50B46
:040409007EFF7FFFF4
:01040D0022CC
:09061D0020B1037F01227F0022BD
:0906260020B2037F01227F0022B3
:100003007424252FF8A607052FC3E52F940A7480BF
:0800130094804003E4F52F2264
:10059C00E52EB52F037F00227424252EF8E6FF05E7
:0F05AC002EE52EC3940A748094804003E4F52E4C
:0105BB00221D
:10046A00E4F52EF52FFFEFC3940274809480503880
:10047A00EF75F00BA42414F87600087664EF75F093
:10048A000BA42411F87602EF75F00BA42416F8E4F5
:10049A00F6EF75F00BA42417F8E4F6EF75F00BA449
:1004AA002418F8E4F60F80BE750EFF750F06751056
:0A04BA001D7519FF751A06751B2643
:0104C4002215
:0201B5008F3188
:1001B700EF75F00BA4240EF9E4FAFBF532F5338959
:1001C70034120152120172EF700302029AAB32AA83
:1001D70033A93490000312001EFF7E00C3940574F8
:1001E700809480500890000374050202F9C3EF94CD
:1001F7000AEE648094805008900003740102004B5B
:1002070090000812001E70129000080412007EE58C
:100217003175F003A404FF120003AB32AA33A934EB
:100227009000061200A0FFAEF0D39400EE940050A9
:10023700030202FC9000041200A0C39FE5F09E5049
:1002470021900004E475F0011200D8FCE5F06F700E
:1002570002EC6E60030202FCE53175F003A424038F
:10026700802D90000912001EFFD3940074809480A3
:1002770050030202FC90000A740112004BC39F4016
:100287007490000AE412007EE53175F003A404FFC0
:10029700020003AB32AA33A93490000312001EFFF9
:1002A7007E00D3940574809480400A9000037405FF
:1002B70012007E802AEF4E600A90000374FF12003E
:1002C7004B801C90000812001E64017012900008F9
:1002D70012007EE53175F003A42402FF120003AB80
:1002E70032AA33A934900004E4F5F01201259000F6
:0502F7000AE412007E84
:0102FC0022DF
:1005D500E4F530C3E5309402748094805009AF305F
:0705E5001201B5053080ECA6
:0105EC0022EC
:10030900020572E493A3F8E493A34003F68001F293
:1003190008DFF48029E493A3F85407240CC8C333F5
:10032900C4540F4420C8834004F456800146F6DFC4
:10033900E4800B01020408102040809005BCE47E93
:10034900019360BCA3FF543F30E509541FFEE493B9
:10035900A360010ECF54C025E060A840B8E493A380
:10036900FAE493A3F8E493A3C8C582C8CAC583CAAB
:10037900F0A3C8C582C8CAC583CADFE9DEE780BE63
:0105D4000026
:10001E00BB010CE58229F582E5833AF583E0225097
:10002E0006E92582F8E622BBFE06E92582F8E222E1
:0D003E00E58229F582E5833AF583E49322FB
:10004B00BB010FF8E58229F582E5833AF583E028B9
:10005B00F0225009C58229F8E58226F622BBFE095B
:10006B00C58229F8E22582F222F8EA2583F583E995
:03007B00932822A5
:10007E00F8BB010DE58229F582E5833AF583E8F0B8
:10008E00225006E92582C8F622BBFE05E92582C864
:02009E00F2224C
:1000A000BB0110E58229F582E5833AF583E0F5F09E
:1000B000A3E0225009E92582F886F008E622BBFE7B
:1000C0000AE92582F8E2F5F008E222E5832AF583C1
:0800D000E993F5F0A3E9932286
:1000D800BB010DC58229C582C5833AC58302017853
:1000E8005011C58229F808E5F026F618F5F0E582E2
:1000F80036F622BBFE11C58229F808E225F0F5F094
:10010800F218E23582F222F8E58229F582E5832A9F
:0D011800F58374019325F0F5F0E49338228F
:10012500F8BB0111E58229F582E5833AF583E8F00C
:10013500E5F0A3F0225009E92582C8F608A6F022C9
:0D014500BBFE09E92582C8F2E5F008F222B0
:10015200BB010789828A830201975005E9F80201EF
:100162008EBBFE05E9F80201A089828A830201A9F9
:060172008A838982E47318
:10017800C5F0F8A3E028F0C5F0F8E5821582700212
:060188001583E038F022AF
:09018E00E6FB08E6FA08E6F92296
:09019700E0FBA3E0FAA3E0F92269
:0901A000E2FB08E2FA08E2F92290
:0C01A900E493FB740193FA740293F922B2
:00000001FF
