:030000000201F604
:0C01F600787FE4F6D8FD75810F0201ACA3
:10000300C0F9A4B0999282F880908883C6A1868EA5
:1001AC00120013C3E50C6480948040F7E50D9410A5
:1001BC00E50C6480948050EB7403250DF58274007B
:0A01CC00350CF583E493F5A080D90B
:030013000201D611
:1001D600438910758DFC758B18D2ABD2AFD28E22A7
:03001B0002015986
:10015900C0E0C0F0C083C082C0D075D000C000C06C
:0D01690001C002C003C004C005C006C007ED
:10017600758DFC758B18050FE50F7002050E640A68
:0B018600450E7007F50EF50F12001675
:10019100D007D006D005D004D003D002D001D000C2
:0B01A100D0D0D082D083D0F0D0E0326C
:0300160002001EC7
:1001E600EEEDEBE7DEDDDBBBBEBDBBB77E7D7B7731
:1000A300E4FDFBFAEDC39404748094805028ED6062
:1000B3000EEBC4F8540FC868FBEAC454F048FAA81E
:1000C300057480088002C313D8FCF4F590E59054BE
:1000D3000F42030D80CE7D10AF051DEF6019AE02F8
:1000E300EBA805088005CEC313CE13D8F920E0E8AA
:0B00F300AF05750C008F0DAE0CAF0DBB
:0100FE0022DF
:1000FF007590F0AF90EF64F060460509E509700266
:10010F000508D39403E5089400403AAF907E00753C
:10011F00900FAD90ED4FFFE4FDFC74E62DF582746A
:10012F00013CF583E4936F7001EE600B0DBD000190
:10013F000CED64104C70E38C0C8D0DAE0CAF0D22DA
:09014F00E4F508F5097EFF7FFFCD
:010158002284
:10001E0075900FAF90EF640F6071050BE50B7002DA
:10002E00050AD39403E50A9400405B75900FAF90D8
:10003E00EF24F9602224FC601624FE600A14701D61
:10004E00E4F50CF50D8016750C00750D01800E751E
:10005E000C00750D028006750C00750D037590F081
:10006E00AF90EF2490601424C0600C24E060042450
:10007E00F080137404800674088002740C250DF54C
:10008E000DE4350CF50CAE0CAF0D22E4F50AF50BB4
:04009E007EFF7FFF63
:0100A200223B
:00000001FF
