:030000000204C433
:0C04C400787FE4F6D8FD75815202050B2C
:100A9A0068656C6C6F00C0F9A4B0999282F8809076
:060AAA008883C6A1868EC0
:100A2100120B3E7BFF7A0A799AE4FDFF120A4D7E92
:100A310000C37480948040F7E5149410748094800E
:0C0A410050EDE514900AA093F5A080E3AE
:10092B004B45595F315F444F574E004B45595F3133
:10093B005F55502020004B45595F315F4C4F4E4760
:10094B00004B45595F325F444F574E004B45595F43
:10095B00325F55502020004B45595F325F4C4F4E54
:02096B00470043
:090B3E0012072A120AC6020AFE7F
:100AFE00438910758DFC758B18D2ABD2AFD28E2276
:030B590002000394
:100795001206497B007A00790C1205D18F4CE54C85
:1007A50024FE601814601D14602214602714602C48
:1007B500240570347BFF7A09792B80267BFF7A0923
:1007C5007936801E7BFF7A09794180167BFF7A098D
:1007D500794C800E7BFF7A09795780067BFF7A0971
:0907E5007962E4FDFF120A4D22C5
:03001B000206BE1C
:1006BE00C0E0C0F0C083C082C0D075D000C000C002
:0D06CE0001C002C003C004C005C006C00783
:1006DB00758DFC758B180549E54970020548054B6E
:1006EB00E54B7002054AE549640545487007F54836
:1006FB00F549120795E54B640A454A7007F54AF52B
:04070B004B120B5929
:10070F00D007D006D005D004D003D002D001D0003E
:0B071F00D0D0D082D083D0F0D0E032E8
:100B0E00EEEDEBE7DEDDDBBBBEBDBBB77E7D7B77FF
:100A75000A1500000000000000000000161F00001D
:100A85000000000000000000000000000000000061
:040A9500000000005D
:10084600E4FDFBFAEDC39404748094805028ED60B7
:100856000EEBC4F8540FC868FBEAC454F048FAA873
:10086600057480088002C313D8FCF4F590E5905413
:100876000F42030D80CE7D10AF051DEF6014AE0252
:10088600EBA805088005CEC313CE13D8F920E0E8FF
:060896008D14AF147E007A
:01089C002239
:1007EE007590F0AF90EF64F060440509E509700272
:1007FE000508D39403E50894004038AF907E007549
:10080E00900FAD90ED4FFFE4FDFC740E2DF582744C
:10081E000B3CF583E4936F7001EE600B0DBD000190
:10082E000CED64104C70E38D14AF147E0022E4F5D1
:07083E0008F5097EFF7FFFB2
:010845002290
:1006490075900FAF90EF640F6061050BE50B7002B9
:10065900050AD39403E50A9400404B75900FAF90B7
:10066900EF24F9601A24FC601124FE60081470124A
:10067900E4F514800D751401800875140280037562
:1006890014037590F0AF90EF2490601424C0600CAF
:1006990024E0600424F0800E74048006740880024B
:1006A900740C2514F514AF147E0022E4F50AF50B39
:0406B9007EFF7FFF42
:0106BD00221A
:090B470020B0037F01227F00228F
:090B500020B1037F01227F002285
:10072A00753900753A00753B157B007A00790C7DA6
:10073A000A12089DE4FFEFC3940274809480503833
:10074A00EF75F00BA42425F87600087664EF75F0AF
:10075A000BA42422F87602EF75F00BA42427F8E400
:10076A00F6EF75F00BA42428F8E4F6EF75F00BA465
:10077A002429F8E4F60F80BE751FFF75200B75213A
:0A078A0047752AFF752B0B752C50E4
:010794002242
:020347008F3DE8
:10034900EF75F00BA4241FF808E6FA08E6AE024E92
:1003590070030204C3EF75F00BA4241FF9E4FAFB40
:10036900F53EF53F89401201EB120294EF7003024A
:10037900045BAB3EAA3FA940900003120037FF7E01
:1003890000C394057480948050089000037405029A
:1003990004C0C3EF940AEE6480948050089000036F
:1003A9007401020064900008120037701890000868
:1003B900041200977B007A00790CE53D75F003A4DF
:1003C90004FD120550AB3EAA3FA940900006120158
:1003D9001AFFAEF0D39400EE940050030204C390C8
:1003E900000412011AC39FE5F09E5026900004E410
:1003F90075F001120152FCE5F06F7002EC6E6003BA
:100409000204C3FB7A00790CE53D75F003A42403CB
:10041900803CAB3EAA3FA940900009120037FFD3A8
:1004290094007480948050030204C390000A7401FC
:10043900120064C39F50030204C390000AE412002F
:10044900977B007A00790CE53D75F003A404FD0261
:100459000550AB3EAA3FA940900003120037FF7E2A
:1004690000D3940574809480400A900003740512A7
:1004790000978030EF4E600A90000374FF12006409
:100489008022900008120037640170189000081249
:1004990000977B007A00790CE53D75F003A42402EE
:1004A900FD120550AB3EAA3FA940900004E4F5F0C7
:0A04B9001201BE90000AE412009741
:0104C3002216
:10000300E4F53CC3E53C9402748094805009AF3C12
:07001300120347053C80ECDD
:01001A0022C3
:100ADA007580FFC2B2D2B3D2B4AF80C2B4EF20E7FE
:010AEA00F615
:010AEB0022E8
:100B1E00AE07120ADAC2B2C2B38E80D2B4C2B42207
:100B2E00AE07120ADAD2B2C2B38E80D2B4C2B422E7
:100AEC00ED7004AC078004EF2440FCEC4480FF0262
:020AFC000B1ECF
:100A4D008B3C8A3D893E120AECAB3CAA3DA93E1275
:100A5D00001E6013053EE53E7002053D14F91200BF
:080A6D001EFF120B2E80E22295
:100AC6007F38120B1E7F0C120B1E7F06120B1E7F29
:040AD60001020B1EF0
:10089D008B358A368937AB39AA3AA93BC003C002DA
:1008AD00C001AB35AA36A93790000512023BAB3516
:1008BD00AA36A93774FFF5F012019FAB35AA36A9F8
:1008CD003790000274FFF5F01201BE900004ED1296
:0708DD0000977E007F01225D
:1008E4008B4D8A4E894F7B007A007900C003C00289
:1008F400C001AB4DAA4EA94F90000512023BAB4D6F
:10090400AA4EA94F74FFF5F012019FAB4DAA4EA950
:100914004F90000274FFF5F01201BE900004E4123F
:0709240000977E007F012215
:100550008D448B418A4289431209EEEF4E6004E4D8
:10056000FEFF22AB41AA42A943120AB0EF4E600C33
:10057000AB41AA42A943E4F5F012019FAB41AA4264
:10058000A94390000212011A2401FFE435F0FE9005
:100590000004120037FD7C001200B9900002EC8DBF
:1005A000F01201BE90000512020BC003C002C00190
:1005B000AB41AA42A94390000212011AD001D00215
:1005C000D003F58285F083E5441200977E007F0119
:0105D0002208
:0605D1008B3C8A3D893ECF
:1005D7001209AF8E3F8F40AB3CAA3DA93E120AB02D
:1005E700EF4E6004E4FEFF22AB3CAA3DA93E90001B
:1005F7000212011AFFAEF01200EFB5071EE5F0B5C3
:10060700061974FFF5F012019FAB3CAA3DA93E9075
:10061700000274FFF5F01201BE8022AB3CAA3DA98F
:100627003E900004120037FD7C001200EF2401FF0A
:10063700E435F0FE1200B9EC8DF012019FAE3FAF2A
:010647004072
:01064800228F
:1009AF008B418A428943120AB0EF4E60057EFF7F6A
:1009BF00FF22AB41AA42A94390000512020BC003CC
:1009CF00C002C001AB41AA42A9431200EFD001D02F
:0F09DF0002D003F58285F083120037FF7E0022DD
:10096D008B508A518952120AB0EF4E60057EFF7F7F
:10097D00FF22AB50AA51A95290000512020BC003E1
:10098D00C002C001AB50AA51A95290000212011A27
:10099D00D001D002D003F58285F083120037FF7E9F
:0209AD00002226
:100AB0001200EFFFAEF0BEFF08BFFF057E007F0112
:060AC000227E007F0022EF
:1009EE008B458A46894790000212011A2401FFE4C2
:1009FE0035F0FE900004120037FD7C001200B91293
:100A0E0000EFB50509ECB5F0057E007F01227E00F2
:030A1E007F002234
:1004D000020A21E493A3F8E493A34003F68001F217
:1004E00008DFF48029E493A3F85407240CC8C3332D
:1004F000C4540F4420C8834004F456800146F6DFFC
:10050000E4800B0102040810204080900A75E47E0C
:10051000019360BCA3FF543F30E509541FFEE493F0
:10052000A360010ECF54C025E060A840B8E493A3B7
:10053000FAE493A3F8E493A3C8C582C8CAC583CAE2
:10054000F0A3C8C582C8CAC583CADFE9DEE780BE9A
:010A9900005C
:10001E00BB010689828A83E0225002E722BBFE02E0
:09002E00E32289828A83E4932213
:10003700BB010CE58229F582E5833AF583E022507E
:1000470006E92582F8E622BBFE06E92582F8E222C8
:0D005700E58229F582E5833AF583E49322E2
:10006400BB010FF8E58229F582E5833AF583E028A0
:10007400F0225009C58229F8E58226F622BBFE0942
:10008400C58229F8E22582F222F8EA2583F583E97C
:030094009328228C
:10009700F8BB010DE58229F582E5833AF583E8F09F
:1000A700225006E92582C8F622BBFE05E92582C84B
:0200B700F22233
:1000B900C2D5EC30E709B2D5E4C39DFDE49CFCEE62
:1000C90030E715B2D5E4C39FFFE49EFE12029AC33E
:1000D900E49DFDE49CFC800312029A30D507C3E439
:0600E9009FFFE49EFE22D1
:1000EF00BB010A89828A83E0F5F0A3E022500687DC
:1000FF00F009E71922BBFE07E3F5F009E31922899E
:0B010F00828A83E493F5F074019322D0
:10011A00BB0110E58229F582E5833AF583E0F5F023
:10012A00A3E0225009E92582F886F008E622BBFE00
:10013A000AE92582F8E2F5F008E222E5832AF58346
:08014A00E993F5F0A3E993220B
:10015200BB010DC58229C582C5833AC5830202EF60
:100162005011C58229F808E5F026F618F5F0E58267
:1001720036F622BBFE11C58229F808E225F0F5F019
:10018200F218E23582F222F8E58229F582E5832A25
:0D019200F58374019325F0F5F0E493382215
:10019F00BB010A89828A83F0E5F0A3F0225006F7AB
:0F01AF0009A7F01922BBFE06F3E5F009F31922A8
:1001BE00F8BB0111E58229F582E5833AF583E8F073
:1001CE00E5F0A3F0225009E92582C8F608A6F02230
:0D01DE00BBFE09E92582C8F2E5F008F22217
:1001EB00BB010789828A830203175005E9F80203D2
:1001FB0005BBFE05E9F802032989828A8302033BCA
:10020B00BB010DE58229F582E5833AF583020317DD
:10021B005007E92582F8020305BBFE07E92582F8A2
:10022B00020329E58229F582E5833AF58302033B34
:10023B00BB0120E58229F582E5833AF583D0F0D026
:10024B00E0F8D0E0F9D0E0FAD0E0FBE8C0E0C0F095
:10025B000203205018E92582F8D083D082D0E0F930
:10026B00D0E0FAD0E0FBC082C08302030EBBFE18C5
:10027B00E92582F8D083D082D0E0F9D0E0FAD0E043
:09028B00FBC082C0830203322291
:060294008A838982E473F5
:10029A00BC000BBE0029EF8DF084FFADF022E4CC48
:1002AA00F875F008EF2FFFEE33FEEC33FCEE9DEC11
:1002BA00984005FCEE9DFE0FD5F0E9E4CEFD22ED57
:1002CA00F8F5F0EE8420D21CFEADF075F008EF2FA1
:1002DA00FFED33FD4007985006D5F0F222C398FD92
:0502EA000FD5F0EA222F
:1002EF00C5F0F8A3E028F0C5F0F8E582158270029A
:0602FF001583E038F02237
:09030500E6FB08E6FA08E6F9221D
:09030E00EBF608EAF608E9F62214
:09031700E0FBA3E0FAA3E0F922E7
:09032000EBF0A3EAF0A3E9F022DE
:09032900E2FB08E2FA08E2F92205
:09033200EBF208EAF208E9F222FC
:0C033B00E493FB740193FA740293F9221E
:00000001FF
